{
  "contractName": "CoinFlip",
  "abi": [
    {
      "anonymous": false,
      "inputs": [
        {
          "indexed": false,
          "internalType": "address",
          "name": "user",
          "type": "address"
        },
        {
          "indexed": false,
          "internalType": "bool",
          "name": "status",
          "type": "bool"
        },
        {
          "indexed": false,
          "internalType": "uint256",
          "name": "reward",
          "type": "uint256"
        }
      ],
      "name": "FlipCoinResult",
      "type": "event"
    },
    {
      "constant": true,
      "inputs": [],
      "name": "houseBalance",
      "outputs": [
        {
          "internalType": "uint256",
          "name": "",
          "type": "uint256"
        }
      ],
      "payable": false,
      "stateMutability": "view",
      "type": "function"
    },
    {
      "constant": true,
      "inputs": [],
      "name": "owner",
      "outputs": [
        {
          "internalType": "address",
          "name": "",
          "type": "address"
        }
      ],
      "payable": false,
      "stateMutability": "view",
      "type": "function"
    },
    {
      "constant": false,
      "inputs": [],
      "name": "flipCoin",
      "outputs": [],
      "payable": true,
      "stateMutability": "payable",
      "type": "function"
    },
    {
      "constant": false,
      "inputs": [],
      "name": "withdrawAll",
      "outputs": [
        {
          "internalType": "uint256",
          "name": "",
          "type": "uint256"
        }
      ],
      "payable": false,
      "stateMutability": "nonpayable",
      "type": "function"
    }
  ],
  "bytecode": "0x6080604052678ac7230489e80000600155336000806101000a81548173ffffffffffffffffffffffffffffffffffffffff021916908373ffffffffffffffffffffffffffffffffffffffff1602179055506104228061005f6000396000f3fe60806040526004361061003f5760003560e01c806367084eb314610044578063799ae2231461006f578063853828b6146100795780638da5cb5b146100a4575b600080fd5b34801561005057600080fd5b506100596100fb565b6040518082815260200191505060405180910390f35b610077610101565b005b34801561008557600080fd5b5061008e6102b8565b6040518082815260200191505060405180910390f35b3480156100b057600080fd5b506100b9610385565b604051808273ffffffffffffffffffffffffffffffffffffffff1673ffffffffffffffffffffffffffffffffffffffff16815260200191505060405180910390f35b60015481565b60648034101561011057600080fd5b60036001548161011c57fe5b04341115610175576040517f08c379a00000000000000000000000000000000000000000000000000000000081526004018080602001828103825260318152602001806103bd6031913960400191505060405180910390fd5b600061017f6103aa565b14156101f7576001600060146101000a81548160ff021916908315150217905550346002819055503373ffffffffffffffffffffffffffffffffffffffff166108fc60028054029081150290604051600060405180830381858888f193505050501580156101f1573d6000803e3d6000fd5b5061021c565b60008060146101000a81548160ff021916908315150217905550346000036002819055505b6002546001600082825403925050819055507edbb6d905b36582c040fbe1fe37804f620a83d6a52f39544c62e96f0ed3d52833600060149054906101000a900460ff16600254604051808473ffffffffffffffffffffffffffffffffffffffff1673ffffffffffffffffffffffffffffffffffffffff16815260200183151515158152602001828152602001935050505060405180910390a150565b60008060009054906101000a900473ffffffffffffffffffffffffffffffffffffffff1673ffffffffffffffffffffffffffffffffffffffff163373ffffffffffffffffffffffffffffffffffffffff161461031357600080fd5b60003073ffffffffffffffffffffffffffffffffffffffff1631905060006001819055503373ffffffffffffffffffffffffffffffffffffffff166108fc829081150290604051600060405180830381858888f1935050505015801561037d573d6000803e3d6000fd5b508091505090565b6000809054906101000a900473ffffffffffffffffffffffffffffffffffffffff1681565b6000600242816103b657fe5b0690509056fe5468652062657420616d6f756e742063616e6e6f7420657863656564207468652070617961626c65206a61636b706f7421a265627a7a72315820adf7264a16f30b51bb6da03d0d38ea34d0ec6be83743cb6aea3280a33db865f864736f6c634300050c0032",
  "source": "pragma solidity 0.5.12;\n\nimport \"./Ownable.sol\";\n\n\ncontract CoinFlip is Ownable {\n\n    bool result;\n    uint public houseBalance = 10 ether;\n    uint reward;\n\n    modifier costs(uint value) {\n        require(msg.value >= value);\n        _;\n    }\n\n    event FlipCoinResult (address user, bool status, uint reward);\n\n    function flipCoin () public payable costs(100 wei) {\n        require(msg.value <= (houseBalance / 3), \"The bet amount cannot exceed the payable jackpot!\");\n\n        if (random() == 0) {\n          //Winning\n            result = true;\n            reward = msg.value;\n            msg.sender.transfer(reward * 2);\n        } else {\n            result = false;\n            reward = -msg.value;\n        }\n        houseBalance -= reward;\n        emit FlipCoinResult(msg.sender, result, reward);\n    }\n\n    function withdrawAll() public onlyOwner returns(uint) {\n        uint toTransfer = address(this).balance;\n        houseBalance = 0;\n        msg.sender.transfer(toTransfer);\n        return toTransfer;\n    }\n\n    function random() private view returns (uint) {\n        return block.timestamp % 2;\n    }\n}\n",
  "sourcePath": "/Users/codymcmillan/IOT_Academy/Solidity_Advanced/Project_CoinFlip/contracts/CoinFlip.sol",
  "compiler": {
    "name": "solc",
    "version": "0.5.12+commit.7709ece9.Emscripten.clang"
  },
  "schemaVersion": "3.0.23",
  "updatedAt": "2020-08-11T12:08:27.716Z",
  "networkType": "ethereum",
  "devdoc": {
    "methods": {}
  },
  "userdoc": {
    "methods": {}
  }
}